:020000040800F2
:1000000038140020990100085F0900085B09000806
:100010005D09000839070008E50A00080000000033
:1000200000000000000000000000000001010008C6
:10003000C107000800000000450100086109000830
:10004000B3010008B3010008B3010008B3010008C0
:10005000B3010008B3010008B3010008B3010008B0
:10006000B3010008B3010008B3010008B3010008A0
:10007000B3010008B3010008B3010008B301000890
:10008000B3010008B3010008B3010008B301000880
:10009000B3010008B3010008B3010008B301000870
:1000A000B3010008B3010008B3010008B301000860
:1000B000B3010008B301000891090008B30100086A
:1000C000B3010008B3010008B3010008B301000840
:1000D000B3010008B3010008B3010008B301000830
:1000E000B3010008B3010008B3010008DFF80CD029
:1000F00000F06EFA004800477D0E0008381400201A
:10010000224B19680868B0E8F00F80F30988BFF344
:100110006F8F4FF0000080F311884EF00D0E704786
:100120000000000006480068006880F3088862B696
:1001300061B6BFF34F8FBFF36F8F00DF00BF00BF0B
:1001400008ED00E0EFF30980BFF36F8F0F4B1A68E3
:1001500020E9F00F106008B54FF0500080F31188CF
:10016000BFF34F8FBFF36F8F01F0E8FA4FF000003D
:1001700080F31188BDE8084019680868B0E8F00FFE
:1001800080F30988BFF36F8F704700BF34000020F1
:10019000EFF3058070470000064880470648004797
:1001A000FEE7FEE7FEE7FEE7FEE7FEE7FEE7FEE727
:1001B000FEE7FEE78D090008ED000008202A04DBB9
:1001C000203A21FA02F00021704721FA02F3D040D0
:1001D000C2F12002914008431946704740EA0103EA
:1001E0009B0703D009E008C9121F08C0042AFAD2ED
:1001F00003E011F8013B00F8013B521EF9D27047B1
:100200002DE9FE4F804681EA0300C00F0C460090A6
:1002100021F0004123F00045B8EB0200A94105D2CE
:100220004046214690461C460B46024623F00040BD
:10023000104347D0270DC7F30A00C3F30A510290B9
:10024000401A019040286BDAC3F3130040F4801B7E
:100250000098924620B10023D2EB030A63EB0B0B0C
:1002600001985946C0F14002504600F032F9064666
:100270000D4650465946019A00F03AF910EB080035
:100280006141002487EA115284EAE7731A4340D09F
:10029000009A62B3019A012A4FEA075215DC001B4B
:1002A00061EB02014FF0004202EA0752CDE9004241
:1002B000001C41F5801132462B4600F03AF903B09C
:1002C000BDE8F08F40462146F9E7001B61EB0201D3
:1002D000001C41F5801300185B412018A2F500179F
:1002E00047EB030140EAD570B6196D4111E06D0886
:1002F0004FEA360645EAC0754FEA0752001B61EB2C
:100300000201001C41F5801149084FEA3000001934
:10031000514132462B4603B0BDE8F04F00F0FAB829
:100320000098012240000023D0EB020263EBE0734F
:10033000009821464FEAE074B8EB000061EB04013D
:10034000E9E783F000435BE781F0004158E72DE9DE
:10035000F04D81EA030404F0004B21F000451446FF
:100360004FF0000A23F0004150EA050220D054EA81
:1003700001021DD0C5F30A570246C5F31303C1F3AA
:100380001300C1F30A5640F4801543F48013A7EB21
:100390000608101BD64608F2FD3873EB050002D3A1
:1003A00008F1010801E092185B41B8F1000F03DA8F
:1003B00000200146BDE8F08D00204FF48011064674
:1003C00084460EE0171B73EB050705D3121B63EB86
:1003D000050306434CEA010C49084FEA3000921825
:1003E0005B4150EA0107EDD152EA030012D082EAE4
:1003F000040083EA0501084305D0101BAB4106D277
:100400000122002306E000224FF0004302E06FF0DB
:10041000010253101AEB06004CEB085110EB0A00D6
:1004200041EB0B01BDE8F04D00F074B870B521F060
:10043000004303430CD0C1F30A550024D5EB040557
:1004400064EB0403D617AD1AB34102DB002001466A
:1004500070BD201841EB025170BD0EB540F2334122
:1004600002910021CDE900110A460B4600F061F827
:1004700003B000BDC1F30A5210B5C1F3130140F23D
:10048000FF3341F480119A4201DA002010BD40F29E
:1004900033439A42A2F2334203DC5242FFF78EFE0C
:1004A00010BD904010BD30B50B4601460020202203
:1004B000012409E021FA02F59D4205D303FA02F571
:1004C000491B04FA02F52844151EA2F10102F1DCD1
:1004D00030BD202A04DB203A00FA02F100207047E8
:1004E0009140C2F1200320FA03F319439040704772
:1004F000202A06DBCB17203A41FA02F043EAE073E8
:1005000006E041FA02F3D040C2F1200291400843D4
:100510001946704710B5141E73F1000408DA401C28
:1005200041F1000192185B411A4301D120F0010012
:1005300010BD2DE9F04D92469B4611B1B1FA81F202
:1005400002E0B0FA80F220329046FFF7C2FF044684
:100550000F4640EA0A0041EA0B0153465A46084357
:1005600013D0114653EA010019D0C8F14002504699
:10057000FFF724FE05460E46504659464246FFF711
:10058000A8FF084305D0012004E020463946BDE815
:10059000F08D0020054346EAE0762C4337430A9865
:1005A0006305E40AA0EB08000022FD0A44EA475470
:1005B0000A3002D500200146E9E70105101969411A
:1005C000DDE9084500196941BDE8F04DA2E70000EA
:1005D000064C074D06E0E06840F0010394E8070090
:1005E00098471034AC42F6D3FFF784FD801F000813
:1005F000A01F0008F0B5404A936943F4007393616B
:10060000936943F004039361936943F00803936192
:100610003A4A136800231360394A136823F0FF0332
:100620001360384A136843F480731360121D136813
:1006300043F002031360136843F48073136013687C
:1006400023F400631360136843F46023136013689A
:1006500043F4801313602B4C00230C34072509E06E
:100660002668CF5C07EB470705FA07F73E4326608D
:100670005B1CDBB28342F3D3224B28331C68224D30
:1006800005EB00552C431C601E4E002330361F4CDA
:10069000371F1EE0062B0DD2D6F800C011F803E07C
:1006A00025780EFA05FE4CEA0E0CC6F800C06D1D4A
:1006B00025700CE0D7F800C011F803E065780EFA59
:1006C00005FE4CEA0E0CC7F800C06D1D65705B1C82
:1006D000DBB28342DED3106840F004001060106883
:1006E0004007FCD5106840F001001060106840F42D
:1006F00080001060F0BD00000010024000080140C2
:10070000000C0140042401400000F0FF0000002024
:100710000248816941F40071816170470010024014
:10072000044BDA6018615961986840F001009860E4
:100730007047000000000240FEE700002DE9F04194
:100740000001FFF78AFE02460B4600200B49FFF727
:10075000FEFD05460C46FFF78DFE0646FFF77DFEC3
:100760002A462346FFF7F0FD0422FFF75FFEFFF75E
:1007700081FE40EA061080B2BDE8F08180845E41CF
:100780000D48416941F0010141610C48816821F047
:1007900010018160816841F020018160816841F031
:1007A00080018160816841F480718160816841F4D9
:1007B000806181607047000000100240000002402C
:1007C00070470000024881680278114481607047D8
:1007D0002400002070477047704770B504460068D9
:1007E00001694FF00005C943890715D4C168C943A1
:1007F000890711D4E91E01610120207720688069F2
:100800008007204602D0FFF7E7FF04E000F098F8E9
:10081000204600F096F8257720680169C94349070A
:1008200017D4C168C943490713D46FF004010161AB
:10083000022020772068806910F4407F204602D093
:10084000FFF7CAFF04E000F07BF8204600F079F8DB
:10085000257720680169C943090716D4C168C943CF
:10086000090712D46FF00801016104202077206885
:10087000C0698007204602D0FFF7AEFF04E000F019
:100880005FF8204600F05DF8257720680169C943CC
:10089000C90617D4C168C943C90613D46FF0100143
:1008A0000161082020772068C06910F4407F20464D
:1008B00002D0FFF791FF04E000F042F8204600F07C
:1008C00040F8257720680169C943C90708D1C16884
:1008D000C943C90704D1891E0161204600F032F8DE
:1008E00020680169C943090609D4C168C9430906DA
:1008F00005D46FF0800101612046FFF76BFF20688F
:100900000169C943490609D4C168C943490605D4E8
:100910006FF040010161204600F01EF82068016977
:10092000C94389060BD4C168C943890607D46FF04F
:10093000200101612046BDE87040FFF74CBF70BD4B
:100940007047704700680349884201D1FFF73ABFFA
:1009500070470000000800407047FEE7FEE7704760
:1009600010B5502080F31188BFF34F8FBFF36F8F06
:1009700001F0BAF918B104494FF080500860002026
:1009800080F3118810BD000004ED00E07047000006
:100990000148FFF722BF0000FC02002002220C49A0
:1009A0000C48FFF7BDFE0A4E4FF47A75A6F1180405
:1009B00000231A460649206900F0AAFF00231A46C0
:1009C000B11C606900F0A4FF284600F02DFEEFE79F
:1009D0001C0000204C2401404FF0FF36084CA4F1CD
:1009E0001C0532460649286901F042F8228805A113
:1009F000054800F079F8044800F060F8F1E70000DD
:100A00002000002025346400940000204FF0FF36C1
:100A1000084CA4F11C053246A11C686901F028F8B5
:100A2000628805A1054800F05FF8044800F046F828
:100A3000F1E7000020000020253464009E00002023
:100A4000174910B58A6942F004028A6115490A689B
:100A500022F470620A600A6842F420620A600A683E
:100A600022F470420A600A6842F400420A600D49AA
:100A70000C310A6842F008020A60FFF75FFE0A497B
:100A80000860081D016841F400510160016841F0EF
:100A900004010160016841F00801016010BD00001F
:100AA0000010024000080140084400400248C169AB
:100AB00041F40031C16170470010024000B50346A7
:100AC00002E05B1C00F004F818780028F9D100BDA2
:100AD00003490A681206FCD50149091D08607047E0
:100AE00000440040FEE700000FB4084B10B504A915
:100AF00002AA039800F01CF8044602A9002000F0A6
:100B0000B8F9204610BC5DF814FB0000730E000815
:100B100002E008C8121F08C1002AFAD170477047C6
:100B2000002001E001C1121F002AFBD17047000024
:100B30002DE9FF4F8BB088460546002606E02528A4
:100B40000BD0DDE90D1290476D1C761C287800282B
:100B5000F5D10FB03046BDE8F08F0024A146A24683
:100B60000122AE4900E0044315F8013F203B02FAA0
:100B700003F00842F7D128782A2810D06FF02F020E
:100B80002878A0F13001092915D809EB890102EB79
:100B9000410144F0020400EB01096D1CF0E758F834
:100BA000041B5FEA010903D544F40054C9F10009AC
:100BB00044F002046D1C28782E2817D115F8010F77
:100BC00044F004042A280ED06FF02F022878A0F1F8
:100BD000300109290AD80AEB8A0102EB410100EB36
:100BE000010A6D1CF2E758F804AB6D1C28786C28DC
:100BF0000FD006DC4C2817D068280DD06A2814D1F5
:100C000004E0742810D07A280FD10DE044F40014C9
:100C10000AE044F4801401E044F44014697881420D
:100C200002D104F580146D1C6D1C2878692865D0EC
:100C300006DC00288DD0632827D0642806D15DE02B
:100C40006E2808D073282AD0752877D0DDE90D12D8
:100C50009047761CE0E0C4F30250022809D0032834
:100C60000DD0D8F8001004280DD00E6008F104084B
:100C7000D2E0D8F80010F217C1E90062F6E7D8F820
:100C800000100E80F2E70E70F0E718F8041B8DF8E4
:100C9000001000208DF80100EB46012003E058F819
:100CA00004BB4FF0FF3061074FF0000701D40AE0AA
:100CB0007F1C57450DDA8742FADB1BF80710002925
:100CC000F6D106E07F1C8742FCDB1BF807100029E9
:100CD000F8D1DDE90D23A9EB07008146214600F09C
:100CE000B1F83044C61904E0DDE90D121BF8010B20
:100CF00090477F1EF8D22146484688E058F8040BFA
:100D0000C4F302514FF00A0B032900D100B20429A9
:100D100000D140B2002802DA40422D2102E0210534
:100D200005D52B218DF82410012104E006E0E10710
:100D300010D02021F6E708AF089113E058F8040B13
:100D4000C4F302514FF00A0B032900D180B20429E9
:100D500000D1C0B20021EEE75946FFF7A4FB3031C5
:100D600007F8011D0028F7D1ADEB070000F1200BBB
:100D7000600702D524F4803401E04FF0010ADA451F
:100D800002DDAAEB0B0000E00020824600EB0B0125
:100D900008980144A9EB01000A90E00306D4DDE9BC
:100DA0000D2321460A9800F04DF806444FF0000943
:100DB00008E009A911F80900DDE90D12904709F1D1
:100DC0000109761C08998945F3DBE0030CD5DDE9C0
:100DD0000D2321460A9800F035F8064404E0DDE9C9
:100DE0000D1230209047761CBAF10001AAF1010AD9
:100DF000F5DC05E0DDE90D1217F8010B9047761CD4
:100E0000BBF10001ABF1010BF4DC0A982146DDE9EE
:100E10000D2300F005F806446D1C97E60928010033
:100E20002DE9F041044600251E461746880404D4E7
:100E300005E039462020B0476D1C641EF9D52846D0
:100E4000BDE8F0812DE9F041044600251E4690469C
:100E5000C80301D5302700E02027880404D505E029
:100E600041463846B0476D1C641EF9D52846BDE89A
:100E7000F0810A68531C0B60107070471CB5FFF7B7
:100E800047FC1E490220FFF7B5FBFFF779FCFFF78F
:100E90000DFE4FF4E130FFF7D3FD18490020091D86
:100EA000CDE900010346802215A1174800F0B6FEE7
:100EB000124902200831CDE900010023802213A14C
:100EC000144800F0ABFE0D4903200C31CDE90001C0
:100ED0000023802210A1124800F0A0FE002202216F
:100EE000012000F0ADFC054C002202212061012010
:100EF00000F0A6FC606100F015F8FEE70400002099
:100F00005461736B303100009D0900085461736BAC
:100F100030320000D90900085461736B303300008F
:100F20000D0A000810B500F0CBFB002010BD00003A
:100F30002DE9F041184C0F46054666692068001DF2
:100F400000F0AEFA38B9206890F82C1001208840E3
:100F5000A1698143A161681C07D137B12168BDE84F
:100F6000F0410E48091D00F0DFBA20683544B54253
:100F70004560216805D2A068BDE8F041091D00F078
:100F8000BBBA6068091D00F0B7FA206B854200D239
:100F90002563BDE8F081000034000020200400201B
:100FA0002DE9F041054600F0CBFA2E4C2069401C9B
:100FB000206120682C4F10B1E06940B32DE025601E
:100FC0002069012829D1002606EB860007EB800066
:100FD00000F084FA761C072EF6D323488C3000F0FC
:100FE0007DFA2148A03000F079FA1F48B43000F0B3
:100FF00075FA1D48C83000F071FA1B48DC3000F06B
:101000006DFA19488C3060601430A06005E02068EB
:10101000E96AC06A884200D82560E06A401CE06244
:10102000E96A0120A26988401043A06101EB8100B8
:1010300007EB8000291D00F077FA00F0A1FAE069C3
:1010400000280CD02068E96AC06A884207D20749A4
:101050004FF080500860BFF34F8FBFF36F8FBDE834
:10106000F0810000340000204403002004ED00E083
:1010700030B4026C0B46002A0BD0C1681144C16029
:101080004468A14201D30168C16030BC1846FFF733
:10109000A5B830BC70472DE9F041856B1746044672
:1010A0000026026C82B1C7B1E068FFF797F8E168EB
:1010B000206C091AE1602268914202D26168081A24
:1010C000E060022F16D017E02068A8B9606800F031
:1010D0006FFE0646002060600EE0A068FFF77EF815
:1010E000216CA0680844A0606168884204D320682D
:1010F000A06001E005B16D1E6D1CA5633046BDE822
:10110000F08110B5044690F8510058B101280CD078
:1011100002280FD0502080F31188BFF34F8FBFF308
:101120006F8FFEE7206B00F03FFA2046BDE81040CD
:1011300000F03ABA10BD000010484FF44061420779
:1011400006D0C01D0D4920F00700411AC1F54061CD
:101150000B4A00230144C2E900030839103A21F088
:10116000070111604B600B600B1AC0E9001393601C
:101170004FF000405360D0607047000034040020FE
:1011800080000020144E154CA6F1C8074FF080587F
:10119000DFF84C9012E000BF00F0D2F9F068C568AB
:1011A000281D00F07DF92069401E2061E068401E86
:1011B000E06000F0E5F92846FFF7A3FFE0680028AB
:1011C000EAD138680128F9D9C9F80080BFF34F8FF8
:1011D000BFF36F8FF2E700000C0400203400002002
:1011E00004ED00E00346009829B10260C0E90F3128
:1011F000012100F049BB0060F8E72DE9F0479A466D
:10120000DDE9098481466FF00303206B03EB820262
:101210001044089D20F00706700707D0502080F387
:101220001188BFF34F8FBFF36F8FFEE723180A5C5F
:1012300083F834200A5C12B1401C1028F6D3002732
:1012400084F84370072D00D30625E562C4E91157E1
:10125000201D00F04EF904F1180000F04AF9246155
:10126000C5F107006462A061E76484F850705246DB
:101270004946304600F002F92060B8F1000F01D075
:10128000C8F80040BDE8F08730B5114900E01146CC
:101290000A688242FBD34B685C18844203D14068E1
:1012A00018444860084643681C18944209D1084C09
:1012B000103C2468A24209D052681A4442600A686D
:1012C00012680260814200D0086030BD0460F9E716
:1012D0008000002010B5044600F032F9A06B28B160
:1012E0005FF0000400F04CF9204610BD0124F9E73E
:1012F00006484168096829B14168C968C9684968F0
:10130000016370474FF0FF31FAE70000340000201E
:1013100008484068401C4FF0500080F3118804D00A
:10132000BFF34F8FBFF36F8FFEE7BFF34F8FBFF356
:101330006F8FFEE7880000202DE9F041044600F0A1
:10134000FFF894F9455004F1240609E0606A48B1B9
:10135000304600F079FD08B100F094F96D1E6DB2D1
:10136000002DF3DC4FF0FF3684F8456000F008F9FB
:1013700000F0E6F894F9445004F1100709E0206900
:1013800048B1384600F060FD08B100F07BF96D1EF1
:101390006DB2002DF3DC84F84460BDE8F04100F04C
:1013A000EFB800002DE9F0410546002700F0BEF936
:1013B000314E306808B9FFF7BFFEF06805424BD1E7
:1013C000C5B3083568070ED005F00700C0F1080066
:1013D0000544680707D0502080F31188BFF34F8F72
:1013E000BFF36F8FFEE72DB37068854234D8224873
:1013F000103001460C6801E020460C466168A942A5
:1014000002D221680029F7D131688C4224D00768C4
:101410002168016060680837411B10290FD96019E5
:10142000420708D0502080F31188BFF34F8FBFF3DD
:101430006F8FFEE710E041606560FFF725FF616890
:101440007068401A7060B268904200D2B060F06874
:1014500001430020C4E9000100F030FD780707D007
:10146000502080F31188BFF34F8FBFF36F8FFEE7DB
:101470003846BDE8F08100007000002010B5031F61
:101480004FF080741C601B1F21F001011960191FAF
:10149000024B0B60143940380A6010BD111300086C
:1014A000D0E9013201699A60D0E901235A604A68A3
:1014B000824201D182684A60002202610868401EAF
:1014C0000860086870470000034B036003F1540094
:1014D0000860802010607047A800002000F108011B
:1014E0004FF0FF32C0E90112C160016100210160CB
:1014F000704700210161704730B50B685A1C02D05B
:1015000000F1080202E0026904E0224654682568FE
:101510009D42FAD953684B6099608A6051600861B6
:101520000168491C016030BD42684A6093688B6065
:1015300093685960916008610168491C01607047B7
:10154000502080F31188BFF34F8FBFF36F8F0A498C
:101550004868401C486001280CD10848006810F019
:10156000FF0F07D0502080F31188BFF34F8FBFF3D8
:101570006F8FFEE7704700008800002004ED00E058
:101580000849486828B1401E486001D180F311889D
:101590007047502080F31188BFF34F8FBFF36F8FD8
:1015A000FEE700008800002070B5002827D0144D09
:1015B000A0F108046168E868014207D1502080F377
:1015C0001188BFF34F8FBFF36F8FFEE722683AB1E8
:1015D000502080F31188BFF34F8FBFF36F8FFEE76A
:1015E0008143616000F0A2F860686968084468603F
:1015F0002046FFF749FEBDE8704000F05FBC70BDBB
:10160000700000204FF0E020002101618161054958
:101610004FF47A720968B1FBF2F1491E416107216A
:10162000016170473000002010B5020014D00F484F
:10163000806B38B1502080F31188BFF34F8FBFF318
:101640006F8FFEE700F072F800211046FFF770FC84
:1016500000F034FC002807D105494FF080500860A5
:10166000BFF34F8FBFF36F8F10BD00003400002019
:1016700004ED00E002498A6A0260496941607047EE
:1016800034000020014901204862704734000020E6
:1016900010B50C4650B1094909681831FFF72CFF05
:1016A0002046BDE810400121FFF742BC502080F3E6
:1016B0001188BFF34F8FBFF36F8FFEE73400002018
:1016C00010B586B00024039405AA04A903A80494C5
:1016D000FFF7FAFEDDE903010094CDE901100023D4
:1016E0000EA11048059A00F0C6FA0F490028486379
:1016F00011D0502080F31188BFF34F8FBFF36F8F4D
:101700004FF0FF3008630120C8614C6106B0BDE8AE
:10171000104000F041B806B010BD000049444C45EF
:101720000000000085110008340000200248816B91
:10173000491C816370470000340000201448816B0D
:1017400011B1012141627047002141628169B1FA02
:1017500081F1C1F11F0101EB81020E4951F82230E4
:101760006BB101EB820101F108034A6852684A60DB
:101770009A4201D152684A60D16801607047502096
:1017800080F31188BFF34F8FBFF36F8FFEE7000028
:1017900034000020440300201CB52649087801903D
:1017A000FF20087008788DF800009DF800009DF873
:1017B000002000F0F000904207D0502080F3118804
:1017C000BFF34F8FBFF36F8FFEE79DF800001A4BFA
:1017D00000F0500018700720986005E09DF8002088
:1017E00052008DF80020401E9DF800201206F5D40E
:1017F0009860032807D0502080F31188BFF34F8FE3
:10180000BFF36F8FFEE74FF4407098600198087047
:101810000A48016841F470010160016841F07041BB
:101820000160FFF7EFFE00205860FEF77BFC002010
:101830001CBD000000E400E08800002020ED00E076
:10184000F8B517460E46050014D0DEB105FB06F0CC
:101850004830FFF7A7FD04000AD0002084F84600B6
:1018600004F148023B46314628460094FFF7BAFC93
:101870002046F8BD502080F31188BFF34F8FBFF38F
:101880006F8FFEE70020E3E770B50D46040025D01A
:10189000FFF756FED4E90F20216802FB00116160BA
:1018A0000021A1632168A1600A46D4E90F01401E0E
:1018B00000FB0121E16021464FF0FF3001F8440FA9
:1018C000487004F110008DB1FFF708FE04F1240008
:1018D000FFF704FEFFF754FE012070BD502080F397
:1018E0001188BFF34F8FBFF36F8FFEE72169002987
:1018F000F0D000F0A9FA0028ECD004494FF0805055
:101900000860BFF34F8FBFF36F8FE3E704ED00E094
:101910002DE9FF4782B01D468A464FF000080400BB
:1019200003D0BAF1000F08D011E0502080F31188E5
:10193000BFF34F8FBFF36F8FFEE7206C38B150209D
:1019400080F31188BFF34F8FBFF36F8FFEE7022D37
:101950000AD1E06B012807D0502080F31188BFF333
:101960004F8FBFF36F8FFEE700F0B0F93F4F4FF09E
:1019700000094FF0805648B9049838B1502080F3E0
:101980001188BFF34F8FBFF36F8FFEE7FFF7D8FDCE
:10199000A06BE16B884207D3022D05D00498D0B12B
:1019A000B8F1000F1AD01EE02A4651462046FFF734
:1019B00072FB616A19B104F1240000F045FA20B10C
:1019C0003E60BFF34F8FBFF36F8FFFF7D9FD01204C
:1019D00006B0BDE8F087FFF7D3FD22E06846FFF7C9
:1019E00049FE4FF00108FFF7CBFDFFF79FFEFFF721
:1019F000A7FD94F94400401C01D184F8449094F967
:101A00004500401C01D184F84590FFF7B9FD04A9B9
:101A1000684600F0C9F830B12046FFF78DFC00F0B1
:101A20004DFA0020D4E7FFF78BFDA06BE16B8842F5
:101A300013D1FFF7A5FD04F110000499FFF728FE6C
:101A40002046FFF779FC00F039FA00289ED13E606D
:101A5000BFF34F8FBFF36F8F98E7FFF791FD2046DD
:101A6000FFF76AFC00F02AFA90E7000004ED00E0BE
:101A70002DE9F747002683B08A46040003D0BAF167
:101A8000000F08D011E0502080F31188BFF34F8F72
:101A9000BFF36F8FFEE7206C38B1502080F31188C0
:101AA000BFF34F8FBFF36F8FFEE700F00FF9DFF842
:101AB000F4804FF000094FF0805748B9059838B1CD
:101AC000502080F31188BFF34F8FBFF36F8FFEE775
:101AD000FFF736FDA56BC5B151462046FFF7C8FAA2
:101AE0006D1EA563206950B104F1100000F0ACF93F
:101AF00028B1C8F80070BFF34F8FBFF36F8FFFF7A7
:101B00003FFD012006B0BDE8F087059808B11EB181
:101B100006E0FFF735FD27E06846FFF7ABFD01263D
:101B2000FFF72EFDFFF702FEFFF70AFD94F94400D0
:101B3000401C01D184F8449094F94500401C01D127
:101B400084F84590FFF71CFD05A9684600F02CF8C5
:101B5000002820460AD0FFF7EFFB00F0AFF920463F
:101B6000FFF7B8FB0028B3D00020CBE7FFF7B2FBAC
:101B700090B104F124000599FFF78AFD2046FFF794
:101B8000DBFB00F09BF90028A2D1C8F80070BFF37E
:101B90004F8FBFF36F8F9BE72046FFF7CDFB00F021
:101BA0008DF995E704ED00E02DE9F0410C460500C4
:101BB00011D0C4B1FFF7C4FC174B5A696E68206896
:101BC000911B471C17D02F689B6A9F4219D09642E1
:101BD00017D8012410E0502080F31188BFF34F8FF5
:101BE000BFF36F8FFEE7502080F31188BFF34F8F54
:101BF000BFF36F8FFEE70024FFF7C2FC2046BDE86D
:101C0000F081884205D9401A20602846FFF732FD4E
:101C1000F1E700202060DCE7340000202DE9FF5FC1
:101C20008346DDE90E87994616468A469000FFF7FF
:101C3000B9FB05001CD05420FFF7B4FB040014D0FE
:101C40000020256384F85100CDE90240CDE90087EA
:101C50004B46324651465846FFF7CFFA2046FFF72B
:101C60009FF9012004B0BDE8F09F2846FFF79CFCD7
:101C70004FF0FF30F6E7F0B585B0DDE90B640A9D63
:101C8000A6B1DCB1542700972663022684F8516080
:101C9000002604AFCDE90246CDE90057FFF7ADFAC3
:101CA0002046FFF77DF9049805B0F0BD502080F381
:101CB0001188BFF34F8FBFF36F8FFEE7502080F383
:101CC0001188BFF34F8FBFF36F8FFEE70548C169DF
:101CD00019B1806B18B100207047012070470220B5
:101CE00070470000340000202DE9F0412E4C002701
:101CF000A06B40B1206A401C2062606A00B10127DD
:101D00003846BDE8F0816669761C666113D160686B
:101D1000006838B1502080F31188BFF34F8FBFF3B4
:101D20006F8FFEE76068A1686160A060A06A401CD8
:101D3000A062FFF7DDFA206BDFF87080864209D3DE
:101D40006068006880B16068C068C568686886427D
:101D50000DD220632068C06A00EB800158F8210092
:101D60000128CAD90127C8E74FF0FF30F1E7281D45
:101D7000FFF796FBA86A18B105F11800FFF790FB72
:101D8000E86A0121A26981401143A16100EB800151
:101D900008EB8100291DFFF7C7FBE86A2168C96AC3
:101DA0008842CDD30127CBE7340000204403002034
:101DB00070B504004FF0000140D0214D28688442E6
:101DC00007D0502080F31188BFF34F8FBFF36F8F80
:101DD000FEE7A06C38B1401EA064636CE26A9A42D0
:101DE0002CD040B12AE0502080F31188BFF34F8FF0
:101DF000BFF36F8FFEE7201DFFF752FB114A012151
:101E000050B9E06A00EB800352F8233023B9AB6984
:101E100001FA00F08343AB61606CE062C0F107003F
:101E2000A061E06AAB6981401943A96100EB8000C1
:101E300002EB8000211DFFF777FB0121084670BDF2
:101E400034000020440300202DE9F041C068C4683C
:101E5000ACB104F118000746FFF722FB154DA86B43
:101E60000126A0B139461448FFF75EFBE06A2968F5
:101E7000C96A88421CD901206E62BDE8F0815020F9
:101E800080F31188BFF34F8FBFF36F8FFEE7201DE4
:101E9000FFF706FBE16AAA6906FA01F01043A861A0
:101EA00001EB81000449B43901EB8000211DDBE71F
:101EB0000020E2E734000020F80300202DE9F0477D
:101EC0002C4D00242746A86B38B1FFF739FBA86BCF
:101ED000401EA863A86B40B146E0502080F31188F3
:101EE000BFF34F8FBFF36F8FFEE72969224E0120AA
:101EF000D1B3A6F1B40980463068E8B1F068C4688F
:101F000004F11800FFF7CCFA201DFFF7C9FAE06AC8
:101F1000AA6908FA00F11143A96100EB800109EBFD
:101F20008100211DFFF700FBE06A2968C96A884229
:101F3000E2D3C5F82480DFE70CB1FFF7D9F92C6AAA
:101F400044B14646FFF7D0FE00B16E62641EF9D17F
:101F500000202862686A38B10849012738070860FC
:101F6000BFF34F8FBFF36F8FFFF70AFB3846BDE813
:101F7000F087000034000020F803002004ED00E0AA
:101F8000A01F00080000002094000000100B0008B3
:101F90003420000894000020A4130000200B000847
:101FA0000000000001000000000000000000000030
:101FB0000000000000000000000000000000000021
:101FC0000000000001000000100000000000000000
:101FD0000024F400000000000000000000000000E9
:101FE00000000000000000000000000000000000F1
:101FF00000000000000000000000000000000000E1
:1020000000000000000000000000000000000000D0
:1020100000000000000000000000000000000000C0
:10202000000000000000000000000000AAAAAAAA08
:0420300000000000AC
:04000005080000ED02
:00000001FF
