:020000040800F2
:1000000020040020010100080D070008090700086E
:100010000B0700086D060008E50700080000000057
:1000200000000000000000000000000011070008B0
:10003000F5060008000000000F070008130700087D
:100040001B0100081B0100081B0100081B01000820
:100050001B0100081B0100081B0100081B01000810
:100060001B0100081B0100081B0100081B01000800
:100070001B0100081B0100081B0100081B010008F0
:100080001B0100081B0100081B0100081B010008E0
:100090001B0100081B0100081B0100081B010008D0
:1000A0001B0100081B0100081B0100081B010008C0
:1000B0001B0100081B0100081B0100081B010008B0
:1000C0001B0100081B0100081B0100081B010008A0
:1000D0001B0100081B0100081B0100081B01000890
:1000E0001B0100081B0100081B010008DFF80CD0F1
:1000F00000F010FA00480047A50B0008200400207B
:100100000648804706480047FEE7FEE7FEE7FEE7B1
:10011000FEE7FEE7FEE7FEE7FEE7FEE7170700085B
:10012000ED000008202A04DB203A21FA02F0002129
:10013000704721FA02F3D040C2F1200291400843F7
:10014000194670472DE9FE4F804681EA0300C00F33
:100150000C46009021F0004123F00045B8EB02006E
:10016000A94105D24046214690461C460B46024610
:1001700023F00040104347D0270DC7F30A00C3F314
:100180000A510290401A019040286BDAC3F3130021
:1001900040F4801B0098924620B10023D2EB030A62
:1001A00063EB0B0B01985946C0F14002504600F03A
:1001B00032F906460D4650465946019A00F03AF982
:1001C00010EB08006141002487EA115284EAE773CA
:1001D0001A4340D0009A62B3019A012A4FEA0752AB
:1001E00015DC001B61EB02014FF0004202EA0752EE
:1001F000CDE90042001C41F5801132462B4600F04B
:100200003AF903B0BDE8F08F40462146F9E7001BFC
:1002100061EB0201001C41F5801300185B412018BE
:10022000A2F5001747EB030140EAD570B6196D41FE
:1002300011E06D084FEA360645EAC0754FEA0752ED
:10024000001B61EB0201001C41F5801149084FEAD7
:1002500030000019514132462B4603B0BDE8F04F43
:1002600000F0FAB80098012240000023D0EB02020F
:1002700063EBE073009821464FEAE074B8EB0000AE
:1002800061EB0401E9E783F000435BE781F00041A3
:1002900058E72DE9F04D81EA030404F0004B21F00A
:1002A000004514464FF0000A23F0004150EA0502D1
:1002B00020D054EA01021DD0C5F30A570246C5F307
:1002C0001303C1F31300C1F30A5640F4801543F43D
:1002D0008013A7EB0608101BD64608F2FD3873EB17
:1002E000050002D308F1010801E092185B41B8F162
:1002F000000F03DA00200146BDE8F08D00204FF426
:100300008011064684460EE0171B73EB050705D3E4
:10031000121B63EB050306434CEA010C49084FEA44
:10032000300092185B4150EA0107EDD152EA030018
:1003300012D082EA040083EA0501084305D0101BAD
:10034000AB4106D20122002306E000224FF0004319
:1003500002E06FF0010253101AEB06004CEB08515B
:1003600010EB0A0041EB0B01BDE8F04D00F074B852
:1003700070B521F0004303430CD0C1F30A550024AB
:10038000D5EB040564EB0403D617AD1AB34102DBC9
:100390000020014670BD201841EB025170BD0EB522
:1003A00040F2334102910021CDE900110A460B468B
:1003B00000F061F803B000BDC1F30A5210B5C1F3FB
:1003C000130140F2FF3341F480119A4201DA002018
:1003D00010BD40F233439A42A2F2334203DC524250
:1003E000FFF7A0FE10BD904010BD30B50B46014692
:1003F00000202022012409E021FA02F59D4205D3C4
:1004000003FA02F5491B04FA02F52844151EA2F16D
:100410000102F1DC30BD202A04DB203A00FA02F1AF
:10042000002070479140C2F1200320FA03F31943E2
:1004300090407047202A06DBCB17203A41FA02F0A1
:1004400043EAE07306E041FA02F3D040C2F1200231
:10045000914008431946704710B5141E73F100040B
:1004600008DA401C41F1000192185B411A4301D1A6
:1004700020F0010010BD2DE9F04D92469B4611B1D0
:10048000B1FA81F202E0B0FA80F220329046FFF732
:10049000C2FF04460F4640EA0A0041EA0B015346F8
:1004A0005A46084313D0114653EA010019D0C8F147
:1004B00040025046FFF736FE05460E465046594666
:1004C0004246FFF7A8FF084305D0012004E020467C
:1004D0003946BDE8F08D0020054346EAE0762C431E
:1004E00037430A986305E40AA0EB08000022FD0ADE
:1004F00044EA47540A3002D500200146E9E70105E5
:1005000010196941DDE9084500196941BDE8F04D60
:10051000A2E70000064C074D06E0E06840F001034A
:1005200094E8070098471034AC42F6D3FFF7E2FD99
:10053000000C0008200C0008F0B5404A936943F411
:1005400000739361936943F004039361936943F0EB
:10055000080393613A4A136800231360394A136809
:1005600023F0FF031360384A136843F48073136069
:10057000121D136843F002031360136843F4807381
:100580001360136823F400631360136843F460235B
:100590001360136843F4801313602B4C00230C3456
:1005A000072509E02668CF5C07EB470705FA07F740
:1005B0003E4326605B1CDBB28342F3D3224B2833DD
:1005C0001C68224D05EB00552C431C601E4E002379
:1005D00030361F4C371F1EE0062B0DD2D6F800C058
:1005E00011F803E025780EFA05FE4CEA0E0CC6F869
:1005F00000C06D1D25700CE0D7F800C011F803E0B5
:1006000065780EFA05FE4CEA0E0CC7F800C06D1DA9
:1006100065705B1CDBB28342DED3106840F00400DF
:10062000106010684007FCD5106840F001001060B1
:10063000106840F480001060F0BD0000001002401F
:1006400000080140000C0140042401400000F0FFBC
:1006500000000020044BDA6018615961986840F08E
:10066000010098607047000000000240FEE70000B3
:100670002DE9F0410001FFF792FE02460B460020F3
:100680000B49FFF706FE05460C46FFF795FE0646AA
:10069000FFF785FE2A462346FFF7F8FD0422FFF701
:1006A00067FEFFF789FE40EA061080B2BDE8F081E0
:1006B00080845E410D48416941F0010141610C486F
:1006C000816821F010018160816841F02001816022
:1006D000816841F080018160816841F480718160AE
:1006E000816841F480618160704700000010024021
:1006F00000000240704700000248816802781144FF
:100700008160704708000020FEE7FEE770477047F1
:100710007047FFF7F1BF70470848C16941F0010118
:10072000C1610721800481624FF6FF71C16201211E
:1007300001600169C907FCD0704700000010024049
:10074000174910B58A6942F004028A6115490A689E
:1007500022F470620A600A6842F420620A600A6841
:1007600022F470420A600A6842F400420A600D49AD
:100770000C310A6842F008020A60FFF779FF0A4963
:100780000860081D016841F400510160016841F0F2
:1007900004010160016841F00801016010BD000022
:1007A0000010024000080140084400400248C169AE
:1007B00041F40031C16170470010024000B50346AA
:1007C00002E05B1C00F004F818780028F9D100BDA5
:1007D00003490A681206FCD50149091D08607047E3
:1007E00000440040FEE700000FB4084B10B504A918
:1007F00002AA039800F01CF8044602A9002000F0A9
:10080000B8F9204610BC5DF814FB0000730B00081B
:1008100002E008C8121F08C1002AFAD170477047C9
:10082000002001E001C1121F002AFBD17047000027
:100830002DE9FF4F8BB088460546002606E02528A7
:100840000BD0DDE90D1290476D1C761C287800282E
:10085000F5D10FB03046BDE8F08F0024A146A24686
:100860000122AE4900E0044315F8013F203B02FAA3
:1008700003F00842F7D128782A2810D06FF02F0211
:100880002878A0F13001092915D809EB890102EB7C
:10089000410144F0020400EB01096D1CF0E758F837
:1008A000041B5FEA010903D544F40054C9F10009AF
:1008B00044F002046D1C28782E2817D115F8010F7A
:1008C00044F004042A280ED06FF02F022878A0F1FB
:1008D000300109290AD80AEB8A0102EB410100EB39
:1008E000010A6D1CF2E758F804AB6D1C28786C28DF
:1008F0000FD006DC4C2817D068280DD06A2814D1F8
:1009000004E0742810D07A280FD10DE044F40014CC
:100910000AE044F4801401E044F440146978814210
:1009200002D104F580146D1C6D1C2878692865D0EF
:1009300006DC00288DD0632827D0642806D15DE02E
:100940006E2808D073282AD0752877D0DDE90D12DB
:100950009047761CE0E0C4F30250022809D0032837
:100960000DD0D8F8001004280DD00E6008F104084E
:10097000D2E0D8F80010F217C1E90062F6E7D8F823
:1009800000100E80F2E70E70F0E718F8041B8DF8E7
:10099000001000208DF80100EB46012003E058F81C
:1009A00004BB4FF0FF3061074FF0000701D40AE0AD
:1009B0007F1C57450DDA8742FADB1BF80710002928
:1009C000F6D106E07F1C8742FCDB1BF807100029EC
:1009D000F8D1DDE90D23A9EB07008146214600F09F
:1009E000B1F83044C61904E0DDE90D121BF8010B23
:1009F00090477F1EF8D22146484688E058F8040BFD
:100A0000C4F302514FF00A0B032900D100B20429AC
:100A100000D140B2002802DA40422D2102E0210537
:100A200005D52B218DF82410012104E006E0E10713
:100A300010D02021F6E708AF089113E058F8040B16
:100A4000C4F302514FF00A0B032900D180B20429EC
:100A500000D1C0B20021EEE75946FFF7C6FC3031A5
:100A600007F8011D0028F7D1ADEB070000F1200BBE
:100A7000600702D524F4803401E04FF0010ADA4522
:100A800002DDAAEB0B0000E00020824600EB0B0128
:100A900008980144A9EB01000A90E00306D4DDE9BF
:100AA0000D2321460A9800F04DF806444FF0000946
:100AB00008E009A911F80900DDE90D12904709F1D4
:100AC0000109761C08998945F3DBE0030CD5DDE9C3
:100AD0000D2321460A9800F035F8064404E0DDE9CC
:100AE0000D1230209047761CBAF10001AAF1010ADC
:100AF000F5DC05E0DDE90D1217F8010B9047761CD7
:100B0000BBF10001ABF1010BF4DC0A982146DDE9F1
:100B10000D2300F005F806446D1C97E60928010036
:100B20002DE9F041044600251E461746880404D4EA
:100B300005E039462020B0476D1C641EF9D52846D3
:100B4000BDE8F0812DE9F041044600251E4690469F
:100B5000C80301D5302700E02027880404D505E02C
:100B600041463846B0476D1C641EF9D52846BDE89D
:100B7000F0810A68531C0B601070704710B5034673
:100B80004FF47A7402E0204600F004F85B1E9BB23A
:100B9000F9D210BD4FF0804100224A624A6A824277
:100BA000FCD37047FFF702FEFFF7B6FD0F490220A6
:100BB000FFF7C2FCFFF77EFD0C490222891C0C489E
:100BC000FFF748FD4FF41650FFF7BAFD074CA41C81
:100BD00008A1638822880948FFF706FE0748FFF747
:100BE000EDFD6420FFF7CAFFF2E7000002000020DD
:100BF0004C24014025346420253464001400002076
:100C0000200C00080000002014000000100800085C
:100C1000340C0008140000200C0400002008000818
:100C200000000100000000000100000010000000B2
:040C300000000000C0
:04000005080000ED02
:00000001FF
